{
  "contractName": "MyContract",
  "abi": [
    {
      "inputs": [],
      "payable": false,
      "stateMutability": "nonpayable",
      "type": "constructor"
    },
    {
      "anonymous": false,
      "inputs": [
        {
          "indexed": false,
          "internalType": "uint256",
          "name": "someParam",
          "type": "uint256"
        }
      ],
      "name": "SomeEvent",
      "type": "event"
    },
    {
      "anonymous": false,
      "inputs": [
        {
          "indexed": false,
          "internalType": "uint256",
          "name": "someOtherParam",
          "type": "uint256"
        }
      ],
      "name": "SomeOtherEvent",
      "type": "event"
    },
    {
      "constant": false,
      "inputs": [
        {
          "internalType": "uint256",
          "name": "someParam",
          "type": "uint256"
        }
      ],
      "name": "fireSomeEvent",
      "outputs": [],
      "payable": false,
      "stateMutability": "nonpayable",
      "type": "function"
    },
    {
      "constant": false,
      "inputs": [
        {
          "internalType": "uint256",
          "name": "someOtherParam",
          "type": "uint256"
        }
      ],
      "name": "fireSomeOtherEvent",
      "outputs": [],
      "payable": false,
      "stateMutability": "nonpayable",
      "type": "function"
    }
  ],
  "bytecode": "0x608060405234801561001057600080fd5b50610140806100206000396000f3fe608060405234801561001057600080fd5b50600436106100365760003560e01c8063301d80d81461003b578063eb52504b14610069575b600080fd5b6100676004803603602081101561005157600080fd5b8101908080359060200190929190505050610097565b005b6100956004803603602081101561007f57600080fd5b81019080803590602001909291905050506100d1565b005b7fb2fadb1053e18761ec11c3c992a6c0a991783ce92aaa2a8302ee387b95930d59816040518082815260200191505060405180910390a150565b7f379340f64b65a8890c7ea4f6d86d2359beaf41080f36a7ea64b78a2c06eee3f0816040518082815260200191505060405180910390a15056fea265627a7a72315820b3e13f05f0321c401e9f15e6db97ea2f180acc26a3e46c03a127487d30f0e08364736f6c634300050c0032",
  "source": "pragma solidity ^0.5.0;\n\ncontract MyContract {\n\n  event SomeEvent(uint someParam);\n  event SomeOtherEvent(uint someOtherParam);\n\n  constructor () public {\n  }\n\n  function fireSomeEvent(uint someParam) public {\n    emit SomeEvent(someParam);\n  }\n\n  function fireSomeOtherEvent(uint someOtherParam) public {\n    emit SomeOtherEvent(someOtherParam);\n  }\n}\n",
  "sourcePath": "/home/jmonetta/tmp/ganache-test/contracts/MyContract.sol",
  "compiler": {
    "name": "solc",
    "version": "0.5.12+commit.7709ece9.Emscripten.clang"
  },
  "schemaVersion": "3.0.20",
  "updatedAt": "2020-01-10T15:17:54.726Z",
  "networkType": "ethereum",
  "devdoc": {
    "methods": {}
  },
  "userdoc": {
    "methods": {}
  }
}